{
  "_format": "hh-sol-artifact-1",
  "contractName": "RepTracker",
  "sourceName": "contracts/ReputationTracker.sol",
  "abi": [
    {
      "inputs": [],
      "stateMutability": "nonpayable",
      "type": "constructor"
    },
    {
      "inputs": [],
      "name": "InvalidPointsAmount",
      "type": "error"
    },
    {
      "inputs": [],
      "name": "NotAdmin",
      "type": "error"
    },
    {
      "inputs": [],
      "name": "UserAlreadyRegistered",
      "type": "error"
    },
    {
      "inputs": [],
      "name": "UserNotRegistered",
      "type": "error"
    },
    {
      "anonymous": false,
      "inputs": [
        {
          "indexed": false,
          "internalType": "address",
          "name": "oldAdmin",
          "type": "address"
        },
        {
          "indexed": false,
          "internalType": "address",
          "name": "newAdmin",
          "type": "address"
        }
      ],
      "name": "AdminChanged",
      "type": "event"
    },
    {
      "anonymous": false,
      "inputs": [
        {
          "indexed": false,
          "internalType": "address",
          "name": "user",
          "type": "address"
        },
        {
          "indexed": false,
          "internalType": "int256",
          "name": "points",
          "type": "int256"
        },
        {
          "indexed": false,
          "internalType": "string",
          "name": "reason",
          "type": "string"
        }
      ],
      "name": "PointsAwarded",
      "type": "event"
    },
    {
      "anonymous": false,
      "inputs": [
        {
          "indexed": false,
          "internalType": "address",
          "name": "user",
          "type": "address"
        }
      ],
      "name": "UserRegistered",
      "type": "event"
    },
    {
      "inputs": [],
      "name": "admin",
      "outputs": [
        {
          "internalType": "address",
          "name": "",
          "type": "address"
        }
      ],
      "stateMutability": "view",
      "type": "function"
    },
    {
      "inputs": [
        {
          "internalType": "address",
          "name": "user",
          "type": "address"
        },
        {
          "internalType": "int256",
          "name": "points",
          "type": "int256"
        },
        {
          "internalType": "string",
          "name": "reason",
          "type": "string"
        }
      ],
      "name": "awardPoints",
      "outputs": [],
      "stateMutability": "nonpayable",
      "type": "function"
    },
    {
      "inputs": [
        {
          "internalType": "address[]",
          "name": "users",
          "type": "address[]"
        },
        {
          "internalType": "int256[]",
          "name": "points",
          "type": "int256[]"
        },
        {
          "internalType": "string[]",
          "name": "reasons",
          "type": "string[]"
        }
      ],
      "name": "batchAwardPoints",
      "outputs": [],
      "stateMutability": "nonpayable",
      "type": "function"
    },
    {
      "inputs": [
        {
          "internalType": "address",
          "name": "newAdmin",
          "type": "address"
        }
      ],
      "name": "changeAdmin",
      "outputs": [],
      "stateMutability": "nonpayable",
      "type": "function"
    },
    {
      "inputs": [],
      "name": "getAllUsers",
      "outputs": [
        {
          "internalType": "address[]",
          "name": "",
          "type": "address[]"
        }
      ],
      "stateMutability": "view",
      "type": "function"
    },
    {
      "inputs": [
        {
          "internalType": "address",
          "name": "user",
          "type": "address"
        }
      ],
      "name": "getPoints",
      "outputs": [
        {
          "internalType": "int256",
          "name": "",
          "type": "int256"
        }
      ],
      "stateMutability": "view",
      "type": "function"
    },
    {
      "inputs": [],
      "name": "getUserCount",
      "outputs": [
        {
          "internalType": "uint256",
          "name": "",
          "type": "uint256"
        }
      ],
      "stateMutability": "view",
      "type": "function"
    },
    {
      "inputs": [
        {
          "internalType": "address",
          "name": "user",
          "type": "address"
        }
      ],
      "name": "getUserDetails",
      "outputs": [
        {
          "internalType": "bool",
          "name": "registered",
          "type": "bool"
        },
        {
          "internalType": "int256",
          "name": "points",
          "type": "int256"
        }
      ],
      "stateMutability": "view",
      "type": "function"
    },
    {
      "inputs": [
        {
          "internalType": "address",
          "name": "",
          "type": "address"
        }
      ],
      "name": "isRegistered",
      "outputs": [
        {
          "internalType": "bool",
          "name": "",
          "type": "bool"
        }
      ],
      "stateMutability": "view",
      "type": "function"
    },
    {
      "inputs": [
        {
          "internalType": "address",
          "name": "_user",
          "type": "address"
        }
      ],
      "name": "isUserRegistered",
      "outputs": [
        {
          "internalType": "bool",
          "name": "",
          "type": "bool"
        }
      ],
      "stateMutability": "view",
      "type": "function"
    },
    {
      "inputs": [],
      "name": "register",
      "outputs": [],
      "stateMutability": "nonpayable",
      "type": "function"
    },
    {
      "inputs": [
        {
          "internalType": "uint256",
          "name": "",
          "type": "uint256"
        }
      ],
      "name": "registeredUsers",
      "outputs": [
        {
          "internalType": "address",
          "name": "",
          "type": "address"
        }
      ],
      "stateMutability": "view",
      "type": "function"
    },
    {
      "inputs": [
        {
          "internalType": "address",
          "name": "",
          "type": "address"
        }
      ],
      "name": "userPoints",
      "outputs": [
        {
          "internalType": "int256",
          "name": "",
          "type": "int256"
        }
      ],
      "stateMutability": "view",
      "type": "function"
    }
  ],
  "bytecode": "0x608060405234801561001057600080fd5b50600080546001600160a01b03191633179055610c4c806100326000396000f3fe608060405234801561001057600080fd5b50600436106100cf5760003560e01c8063b5cb15f71161008c578063e2842d7911610066578063e2842d7914610209578063ee204abb1461021e578063f50ddbc714610247578063f851a4401461026757600080fd5b8063b5cb15f714610183578063c3c5a54714610195578063cc3d967b146101b857600080fd5b806304340e04146100d4578063163f7522146100e95780631aa3a0081461012a5780632fb8a229146101325780637259e0f8146101455780638f28397014610170575b600080fd5b6100e76100e236600461087c565b61027a565b005b6101156100f73660046108d3565b6001600160a01b031660009081526002602052604090205460ff1690565b60405190151581526020015b60405180910390f35b6100e7610370565b6100e7610140366004610a04565b610439565b610158610153366004610ade565b610641565b6040516001600160a01b039091168152602001610121565b6100e761017e3660046108d3565b61066b565b6001545b604051908152602001610121565b6101156101a33660046108d3565b60026020526000908152604090205460ff1681565b6101f26101c63660046108d3565b6001600160a01b031660009081526002602090815260408083205460039092529091205460ff90911691565b604080519215158352602083019190915201610121565b610211610747565b6040516101219190610af7565b61018761022c3660046108d3565b6001600160a01b031660009081526003602052604090205490565b6101876102553660046108d3565b60036020526000908152604090205481565b600054610158906001600160a01b031681565b6000546001600160a01b031633146102a557604051637bfa4b9f60e01b815260040160405180910390fd5b6001600160a01b038316600090815260026020526040902054839060ff166102e057604051632163950f60e01b815260040160405180910390fd5b8260000361030157604051632c578e4560e21b815260040160405180910390fd5b6001600160a01b03841660009081526003602052604081208054859290610329908490610b5a565b90915550506040517f5224ce9048320724a50496f157c2e8dc539817c807c56c26cbac13a26f07946e9061036290869086908690610b82565b60405180910390a150505050565b3360009081526002602052604090205460ff16156103a157604051634f2532fb60e11b815260040160405180910390fd5b6001805480820182557fb10e2d527612073b26eecdfd717e6a320cf44b4afac2b0732d9fcbe2b7fa0cf60180546001600160a01b031916339081179091556000818152600260209081526040808320805460ff1916909517909455600381528382209190915591519081527f54db7a5cb4735e1aac1f53db512d3390390bb6637bd30ad4bf9fc98667d9b9b9910160405180910390a1565b6000546001600160a01b0316331461046457604051637bfa4b9f60e01b815260040160405180910390fd5b81518351148015610476575080518251145b6104c05760405162461bcd60e51b8152602060048201526016602482015275082e4e4c2f2e640d8cadccee8d040dad2e6dac2e8c6d60531b60448201526064015b60405180910390fd5b60005b835181101561063b57600260008583815181106104e2576104e2610be7565b6020908102919091018101516001600160a01b031682528101919091526040016000205460ff16801561052f575082818151811061052257610522610be7565b6020026020010151600014155b156106295782818151811061054657610546610be7565b60200260200101516003600086848151811061056457610564610be7565b60200260200101516001600160a01b03166001600160a01b03168152602001908152602001600020600082825461059b9190610b5a565b925050819055507f5224ce9048320724a50496f157c2e8dc539817c807c56c26cbac13a26f07946e8482815181106105d5576105d5610be7565b60200260200101518483815181106105ef576105ef610be7565b602002602001015184848151811061060957610609610be7565b602002602001015160405161062093929190610b82565b60405180910390a15b8061063381610bfd565b9150506104c3565b50505050565b6001818154811061065157600080fd5b6000918252602090912001546001600160a01b0316905081565b6000546001600160a01b0316331461069657604051637bfa4b9f60e01b815260040160405180910390fd5b6001600160a01b0381166106de5760405162461bcd60e51b815260206004820152600f60248201526e496e76616c6964206164647265737360881b60448201526064016104b7565b600054604080516001600160a01b03928316815291831660208301527f7e644d79422f17c01e4894b5f4f588d331ebfa28653d42ae832dc59e38c9798f910160405180910390a1600080546001600160a01b0319166001600160a01b0392909216919091179055565b6060600180548060200260200160405190810160405280929190818152602001828054801561079f57602002820191906000526020600020905b81546001600160a01b03168152600190910190602001808311610781575b5050505050905090565b80356001600160a01b03811681146107c057600080fd5b919050565b634e487b7160e01b600052604160045260246000fd5b604051601f8201601f1916810167ffffffffffffffff81118282101715610804576108046107c5565b604052919050565b600082601f83011261081d57600080fd5b813567ffffffffffffffff811115610837576108376107c5565b61084a601f8201601f19166020016107db565b81815284602083860101111561085f57600080fd5b816020850160208301376000918101602001919091529392505050565b60008060006060848603121561089157600080fd5b61089a846107a9565b925060208401359150604084013567ffffffffffffffff8111156108bd57600080fd5b6108c98682870161080c565b9150509250925092565b6000602082840312156108e557600080fd5b6108ee826107a9565b9392505050565b600067ffffffffffffffff82111561090f5761090f6107c5565b5060051b60200190565b600082601f83011261092a57600080fd5b8135602061093f61093a836108f5565b6107db565b82815260059290921b8401810191818101908684111561095e57600080fd5b8286015b848110156109795780358352918301918301610962565b509695505050505050565b600082601f83011261099557600080fd5b813560206109a561093a836108f5565b82815260059290921b840181019181810190868411156109c457600080fd5b8286015b8481101561097957803567ffffffffffffffff8111156109e85760008081fd5b6109f68986838b010161080c565b8452509183019183016109c8565b600080600060608486031215610a1957600080fd5b833567ffffffffffffffff80821115610a3157600080fd5b818601915086601f830112610a4557600080fd5b81356020610a5561093a836108f5565b82815260059290921b8401810191818101908a841115610a7457600080fd5b948201945b83861015610a9957610a8a866107a9565b82529482019490820190610a79565b97505087013592505080821115610aaf57600080fd5b610abb87838801610919565b93506040860135915080821115610ad157600080fd5b506108c986828701610984565b600060208284031215610af057600080fd5b5035919050565b6020808252825182820181905260009190848201906040850190845b81811015610b385783516001600160a01b031683529284019291840191600101610b13565b50909695505050505050565b634e487b7160e01b600052601160045260246000fd5b8082018281126000831280158216821582161715610b7a57610b7a610b44565b505092915050565b60018060a01b038416815260006020848184015260606040840152835180606085015260005b81811015610bc457858101830151858201608001528201610ba8565b506000608082860101526080601f19601f83011685010192505050949350505050565b634e487b7160e01b600052603260045260246000fd5b600060018201610c0f57610c0f610b44565b506001019056fea2646970667358221220ab6e4e1d247011365cba63bab70e2be09c3d5c52107007c867b02a41acc13ed064736f6c63430008140033",
  "linkReferences": {},
  "deployedLinkReferences": {}
}